:100000000C9434000C9446000C9446000C9446006A
:100010000C9446000C9446000C9446000C94460048
:100020000C9446000C9446000C9446000C94460038
:100030000C9446000C9446000C945B000C94460013
:100040000C9446000C9446000C9446000C94460018
:100050000C9446000C9446000C9446000C94460008
:100060000C9446000C94460011241FBECFEFD4E040
:10007000DEBFCDBF11E0A0E0B1E001C01D92A13014
:10008000B107E1F70E9448000C94AF000C94000007
:100090000E94760087E00E94840090E08D3308F093
:1000A00091E0892F0E945500F5CF882311F05F9AC7
:1000B00008955F9808951F920F920FB60F92112422
:1000C0008F939F9390E080910001882309F491E041
:1000D00090930001992311F05E9A01C05E989F9160
:1000E0008F910F900FBE0F901F90189580EC8AB9DA
:1000F0000E949B0085B5856085BDEEE6F0E08081BD
:10010000826080837894089590917C00987F90938A
:100110007C0090917C008770892B80937C0080917B
:100120007A00806480937A0080917A0086FDFCCF0B
:10013000809179000895ECE7F0E080E4808380818D
:100140008062808380818083EAE7F0E087E08083BB
:1001500080818068808380E00E9484000895F89404
:02016000FFCFCF
:00000001FF
