:100000000C943D000C945A000C945A000C945A0025
:100010000C945A000C945A000C945A000C945A00F8
:100020000C945A000C945A000C945A000C94FE0242
:100030000C945A000C945A000C945A000C945A00D8
:100040000C945A000C945A000C9469030C94950378
:100050000C945A000C945A000C945A000C945A00B8
:100060000C945A000C945A00303132333435363700
:100070003839616263646566000011241FBECFEFEA
:10008000D4E0DEBFCDBF11E0A0E0B1E0ECE7F9E0E5
:1000900002C005900D92AA3DB107D9F712E0AAED72
:1000A000B1E001C01D92A432B107E1F70E94CD0179
:1000B0000C94BC040C94000020E030E0FC01E20F42
:1000C000F31F10822F5F3F4F20313105B9F708959C
:1000D000DC01FB011182108217C0482F40534A30C7
:1000E00010F081E00895808191819C0163E0220FEE
:1000F000331F6A95E1F7880F991F280F391F240FC6
:10010000311D3183208311968C91882331F7089516
:10011000AF92BF92CF92DF92EF92FF921F93CF9355
:10012000DF936C017B0110E078EBA72E7BE0B72E0C
:100130000E94D903EC0193FF03C080E091E004C06A
:1001400092FF06C086E191E00E940C0481E01AC093
:1001500090FF04C0C5010197F1F7EACF1F3010F0FE
:1001600082E010C0682F772767FD7095C7010E9455
:100170006C04009731F4F601E10FF11DC0831F5F9D
:10018000D7CF80E0DF91CF911F91FF90EF90DF906C
:10019000CF90BF90AF900895CF92DF92EF92FF92F1
:1001A0000F931F93DF93CF93CDB7DEB7A2970FB610
:1001B000F894DEBF0FBECDBF8C0180E1F3E0CF2EFF
:1001C000D12CCC0EDD1EF601982F11929A95E9F7ED
:1001D000E3E1EE2EF12CEC0EFD1EF70111928A9553
:1001E000E9F7C8016EE271E00E946304009771F4C0
:1001F00083E391E00E940C048BE391E00E940C04E5
:100200008091D80190E00E94410459C0C80162E584
:1002100071E00E9463040097D9F5C60166E571E0BC
:100220000E948800882379F5C70168E571E00E9483
:100230008800882341F5C701BE016F5F7F4F0E9490
:100240006800882301F58CE591E00E940C04C6014A
:100250000E940C048DE30E94F60389819A810E941A
:10026000410485E691E0B6010E946304009721F401
:1002700089818093D80104C089E691E00E940C0432
:100280008AE791E002C08DE791E00E940C041DC056
:10029000C8016DE871E00E946304009731F482E9BF
:1002A00091E00E940C0480E011C08AE991E00E9474
:1002B0000C04C8010E940C0482E20E94F6038AE04A
:1002C0000E94F6038EE30E94F60381E0A2960FB629
:1002D000F894DEBF0FBECDBFCF91DF911F910F917C
:1002E000FF90EF90DF90CF900895CF92DF92FF9232
:1002F0000F931F93DF93CF93CDB7DEB760970FB601
:10030000F894DEBF0FBECDBF8E010F5F1F4F80E19F
:10031000F80111928A95E9F78EE30E94F603F02E18
:10032000012FA1E1CA2ED12CCC0EDD1E8F2D902FD6
:1003300068E571E00E948800882371F48F2D902F6A
:100340000E94CC00882341F08F2D902FFC01119248
:10035000EC15FD05E1F7EACF60960FB6F894DEBF25
:100360000FBECDBFCF91DF911F910F91FF90DF9016
:10037000CF9008950F931F93CF93DF93EC018C01DF
:100380000A5F1F4F89910E941904C017D107D1F746
:10039000DF91CF911F910F9108954F925F926F92CD
:1003A0007F928F929F92AF92BF92CF92DF92EF9205
:1003B000FF920F931F93DF93CF93CDB7DEB7A49730
:1003C0000FB6F894DEBF0FBECDBF0E9430038CE0A5
:1003D00090E00E94BF038E010D5E1F4FC8010E9476
:1003E0009C02FF2469E1462E512C4C0E5D1EE02E2E
:1003F000012F57E0652E712C6C0E7D1E5E01089456
:10040000A11CB11C4DE0842E912C8C0E9D1E3FE151
:10041000C32ED12CCC0EDD1E87E00E943E0310E0DF
:100420009091D801981708F411E0D2018E2D902FE9
:10043000FC0186E001900D928150E1F71F1509F44F
:100440006CC0112309F065C0C5010E949C02C50162
:10045000B301A4010E94B30280EB91E00E940C045E
:10046000C3010E94BA018AE00E94F60388EB91E082
:100470000E940C04C5010E94BA018AE00E94F603A2
:1004800080EC91E00E940C04C4010E94BA018AE051
:100490000E94F603D601F40186E001900D9281508E
:1004A000E1F78BA19CA1969587959CA38BA38F8D3B
:1004B00098A1A9A1BAA1B695A795979587958F8F71
:1004C00098A3A9A3BAA3C601B5014E2D502F0E942F
:1004D000E50288EC91E00E940C048E2D902F0E9482
:1004E000BA018AE00E94F6038E2D902FB201A60178
:1004F0000E94B30280ED91E00E940C04C6010E94AC
:10050000BA018AE00E94F6038AE00E94F603FF2403
:1005100004C0C3010E949C02F12E0E94D9038336BD
:10052000910509F079CF0E94750176CF882311F0EB
:100530005F9A08955F980895FC012FB7F894809111
:10054000840090918500958384838091DA01909155
:10055000DB01A091DC01B091DD0180839183A28356
:10056000B3832FBF08950F931F93CF93DF93FC01A5
:10057000EB018A01248135818C819D81A901481B71
:10058000590B60E070E02817390710F461E070E063
:10059000461B570BD80115965C934E931497808198
:1005A0009181A281B381288139814A815B81821B3B
:1005B000930BA40BB50BF80180839183A283B383C3
:1005C000DF91CF911F910F910895FC019B01BA011A
:1005D00080819181A281B381F901208131814281A1
:1005E0005381820F931FA41FB51F0196A11DB11D3A
:1005F000FB0180839183A283B38308951F920F929E
:100600000FB60F9211248F939F93AF93BF9390E0F7
:100610008091DE01882309F491E09093DE01992313
:1006200011F05E9A01C05E988091DA019091DB0131
:10063000A091DC01B091DD010196A11DB11D809357
:10064000DA019093DB01A093DC01B093DD01BF914F
:10065000AF919F918F910F900FBE0F901F901895A3
:1006600080EC8AB90E94550381E080938100EFE617
:10067000F0E08081826080837894089590917C007E
:10068000987F90937C0090917C008770892B809359
:100690007C0080917A00806480937A0080917A0057
:1006A00086FDFCCF809179000895ECE7F0E080E4CE
:1006B000808380818062808380818083EAE7F0E0AC
:1006C00087E0808380818068808380E00E943E0391
:1006D00008951F920F920FB60F9211242F938F93AC
:1006E0009F93EF93FF939091C0002091C600E091FB
:1006F0002102EF5FEF7180912202E81711F482E08E
:1007000008C0892F8871E0932102F0E0E150FE4F8C
:10071000208380932302FF91EF919F918F912F91DE
:100720000F900FBE0F901F9018951F920F920FB64B
:100730000F9211248F939F93EF93FF9390911F0239
:1007400080912002981769F0E0912002EF5FEF712D
:10075000E0932002F0E0E152FE4F80818093C600DA
:1007600005C08091C1008F7D8093C100FF91EF9102
:100770009F918F910F900FBE0F901F9018959C0125
:1007800010921F0210922002109221021092220257
:1007900097FF04C082E08093C0003F773093C5008C
:1007A0002093C40088E98093C10086E08093C20052
:1007B00008959091210280912202981719F420E067
:1007C00031E012C0E0912202EF5FEF71E09322026C
:1007D000F0E0E150FE4F308120912302922F80E023
:1007E000AC01430F511D9A01C9010895282F909122
:1007F0001F029F5F9F71809120029817E1F3E92FFC
:10080000F0E0E152FE4F208390931F028091C100DF
:1008100080628093C1000895CF93DF93EC0103C001
:1008200021960E94F60388818823D1F7DF91CF912A
:1008300008951F93CF93DF93182F8F70C8E6D0E0F1
:10084000FE01E80FF11DE4918E2F0E94F603129530
:100850001F70C10FD11DFE0184910E94F603DF912C
:10086000CF911F910895CF93DF93EC0102C00E94B6
:10087000F603FE01219684918823C9F7DF91CF9179
:1008800008950F931F93DF93CF93CDB7DEB72797CC
:100890000FB6F894DEBF0FBECDBF8E010F5F1F4FA6
:1008A000B8014AE050E00E947704C8010E940C049D
:1008B00027960FB6F894DEBF0FBECDBFCF91DF9164
:1008C0001F910F910895FB01DC018D91019080191A
:1008D0000110D9F3990B0895FC0181E090E001909B
:1008E000061609F4CF010020D1F701970895FB0106
:1008F0009F01E8944230C4F04532B4F44A3029F400
:1009000097FB1EF4909581959F4F642F77270E9447
:10091000A804805D8A330CF0895D8193CB01009738
:10092000A1F716F45DE251931082C9010C9498046A
:10093000DC01FC01672F71917723E1F7329704C046
:100940007C916D9370836291AE17BF07C8F30895D1
:10095000AA1BBB1B51E107C0AA1FBB1FA617B707E5
:1009600010F0A61BB70B881F991F5A95A9F7809501
:0C0970009095BC01CD010895F894FFCFD4
:10097C0075657220554152545F4652414D455F4555
:10098C0052524F520A0075657220554152545F4FB6
:10099C0056455252554E5F4552524F520A006C69A1
:1009AC0073740024206C6973740A002420616463DE
:1009BC003A206164635468726573686F6C64203D9F
:1009CC002000736574003D000A0D2000242073651F
:1009DC00740A242000616463000A65727220554E0B
:1009EC004B4E4F574E5F564152000A3E0065727295
:1009FC00205345545F56414C55450A3E0065786975
:100A0C0074002420657869740A0065727220554E52
:100A1C004B4E4F574E5F434F4D4D414E442022009D
:100A2C006F6E2020203D3E006F666620203D3E000C
:100A3C0064696666203D3E0063656E74203D3E0031
:0A0A4C00726F7461203D3E003C0013
:00000001FF
