:100000000C943D000C945A000C945A000C945A0025
:100010000C945A000C945A000C945A000C945A00F8
:100020000C945A000C945A000C945A000C945A00E8
:100030000C945A000C945A000C9488020C945A00A8
:100040000C945A000C945A000C94DC020C94080393
:100050000C945A000C945A000C945A000C945A00B8
:100060000C945A000C945A00303132333435363700
:100070003839616263646566000011241FBECFEFEA
:10008000D4E0DEBFCDBF11E0A0E0B1E0E2E6F8E0F1
:1000900002C005900D92AE3CB107D9F712E0AEEC6C
:1000A000B1E001C01D92A431B107E1F70E94CD017A
:1000B0000C942F040C94000020E030E0FC01E20FCF
:1000C000F31F10822F5F3F4F20313105B9F708959C
:1000D000DC01FB011182108217C0482F40534A30C7
:1000E00010F081E00895808191819C0163E0220FEE
:1000F000331F6A95E1F7880F991F280F391F240FC6
:10010000311D3183208311968C91882331F7089516
:10011000AF92BF92CF92DF92EF92FF921F93CF9355
:10012000DF936C017B0110E078EBA72E7BE0B72E0C
:100130000E944C03EC0193FF03C080E091E004C0F7
:1001400092FF06C086E191E00E947F0381E01AC021
:1001500090FF04C0C5010197F1F7EACF1F3010F0FE
:1001600082E010C0682F772767FD7095C7010E9455
:10017000DF03009731F4F601E10FF11DC0831F5F2B
:10018000D7CF80E0DF91CF911F91FF90EF90DF906C
:10019000CF90BF90AF900895CF92DF92EF92FF92F1
:1001A0000F931F93DF93CF93CDB7DEB7A2970FB610
:1001B000F894DEBF0FBECDBF8C0180E1F3E0CF2EFF
:1001C000D12CCC0EDD1EF601982F11929A95E9F7ED
:1001D000E3E1EE2EF12CEC0EFD1EF70111928A9553
:1001E000E9F7C8016EE271E00E94D603009771F44E
:1001F00083E391E00E947F038BE391E00E947F0301
:100200008091C80190E00E94B40359C0C80162E522
:1002100071E00E94D6030097D9F5C60166E571E04A
:100220000E948800882379F5C70168E571E00E9483
:100230008800882341F5C701BE016F5F7F4F0E9490
:100240006800882301F58CE591E00E947F03C601D8
:100250000E947F038DE30E94690389819A810E9435
:10026000B40385E691E0B6010E94D603009721F41D
:1002700089818093C80104C089E691E00E947F03D0
:100280008AE791E002C08DE791E00E947F031DC0E4
:10029000C8016DE871E00E94D603009731F482E94D
:1002A00091E00E947F0380E011C08AE991E00E9402
:1002B0007F03C8010E947F0382E20E9469038AE0F3
:1002C0000E9469038EE30E94690381E0A2960FB643
:1002D000F894DEBF0FBECDBFCF91DF911F910F917C
:1002E000FF90EF90DF90CF900895CF92DF92FF9232
:1002F0000F931F93DF93CF93CDB7DEB760970FB601
:10030000F894DEBF0FBECDBF8E010F5F1F4F80E19F
:10031000F80111928A95E9F78EE30E946903F02EA5
:10032000012FA1E1CA2ED12CCC0EDD1E8F2D902FD6
:1003300068E571E00E948800882371F48F2D902F6A
:100340000E94CC00882341F08F2D902FFC01119248
:10035000EC15FD05E1F7EACF60960FB6F894DEBF25
:100360000FBECDBFCF91DF911F910F91FF90DF9016
:10037000CF9008950F931F93CF93DF93EC018C01DF
:100380000A5F1F4F89910E948C03C017D107D1F7D4
:10039000DF91CF911F910F910895AF92BF92CF92AD
:1003A000DF92EF92FF920F931F93DF93CF93CDB71E
:1003B000DEB762970FB6F894DEBF0FBECDBF0E94C6
:1003C000A3028CE090E00E94320300E017E0C12E0F
:1003D000D12CCC0EDD1E7E010894E11CF11CBDE089
:1003E000AB2EB12CAC0EBD1E87E00E94B10210E016
:1003F0009091C801981708F411E0101771F11123BA
:1004000041F5C7010E943B02C601B701A5010E9448
:10041000520280EB91E00E947F03C6010E94BA0164
:100420008AE00E94690388EB91E00E947F03C70184
:100430000E94BA018AE00E94690380EC91E00E9468
:100440007F03C5010E94BA018AE00E94690300E0AF
:1004500004C0C6010E943B02012F0E944C03833658
:10046000910511F60E947501BFCF882311F05F9AA4
:1004700008955F980895FC012FB7F8948091840047
:1004800090918500958384838091C9019091CA01E0
:10049000A091CB01B091CC0180839183A283B383DF
:1004A0002FBF0895EF92FF920F931F93CF93DF9387
:1004B000DC01EB01FA011582148210821182128292
:1004C00013824D915D916D917C911397E880F98035
:1004D0000A811B814E155F056007710790F0149625
:1004E0008D919C9115972C813D81821B930B958357
:1004F00084834E195F09600B710B408351836283C3
:100500007383DF91CF911F910F91FF90EF9008952A
:100510001F920F920FB60F9211248F939F9390E02A
:100520008091CE01882309F491E09093CE01992324
:1005300011F05E9A01C05E989F918F910F900FBE4F
:100540000F901F90189580EC8AB90E94C80285B55B
:10055000856085BDEEE6F0E08081826080837894DE
:10056000089590917C00987F90937C0090917C00FE
:100570008770892B80937C0080917A0080648093BF
:100580007A0080917A0086FDFCCF809179000895F1
:10059000ECE7F0E080E4808380818062808380816A
:1005A0008083EAE7F0E087E0808380818068808351
:1005B00080E00E94B10208951F920F920FB60F9231
:1005C00011242F938F939F93EF93FF939091C000EB
:1005D0002091C600E0911102EF5FEF71809112024D
:1005E000E81711F482E008C0892F8871E0931102A6
:1005F000F0E0E151FE4F208380931302FF91EF91D1
:100600009F918F912F910F900FBE0F901F90189573
:100610001F920F920FB60F9211248F939F93EF9317
:10062000FF9390910F0280911002981769F0E0916A
:100630001002EF5FEF71E0931002F0E0E153FE4F24
:1006400080818093C60005C08091C1008F7D80931A
:10065000C100FF91EF919F918F910F900FBE0F906E
:100660001F9018959C0110920F0210921002109288
:1006700011021092120297FF04C082E08093C00022
:100680003F773093C5002093C40088E98093C10070
:1006900086E08093C2000895909111028091120229
:1006A000981719F420E031E012C0E0911202EF5FD8
:1006B000EF71E0931202F0E0E151FE4F30812091A2
:1006C0001302922F80E0AC01430F511D9A01C90122
:1006D0000895282F90910F029F5F9F7180911002C3
:1006E0009817E1F3E92FF0E0E153FE4F2083909358
:1006F0000F028091C10080628093C1000895CF9362
:10070000DF93EC0103C021960E946903888188234E
:10071000D1F7DF91CF9108951F93CF93DF93182FD7
:100720008F70C8E6D0E0FE01E80FF11DE4918E2F36
:100730000E94690312951F70C10FD11DFE018491A3
:100740000E946903DF91CF911F910895CF93DF93AA
:10075000EC0102C00E946903FE0121968491882366
:10076000C9F7DF91CF9108950F931F93DF93CF9334
:10077000CDB7DEB727970FB6F894DEBF0FBECDBF5B
:100780008E010F5F1F4FB8014AE050E00E94EA035C
:10079000C8010E947F0327960FB6F894DEBF0FBEF4
:1007A000CDBFCF91DF911F910F910895FB01DC0127
:1007B0008D91019080190110D9F3990B0895FC01D6
:1007C00081E090E00190061609F4CF010020D1F7F6
:1007D00001970895FB019F01E8944230C4F045322F
:1007E000B4F44A3029F497FB1EF4909581959F4FFD
:1007F000642F77270E941B04805D8A330CF0895D8B
:100800008193CB010097A1F716F45DE2519310821A
:10081000C9010C940B04DC01FC01672F7191772353
:10082000E1F7329704C07C916D9370836291AE17AB
:10083000BF07C8F30895AA1BBB1B51E107C0AA1F3D
:10084000BB1FA617B70710F0A61BB70B881F991F71
:100850005A95A9F780959095BC01CD010895F8941B
:02086000FFCFC8
:1008620075657220554152545F4652414D455F4570
:1008720052524F520A0075657220554152545F4FD1
:1008820056455252554E5F4552524F520A006C69BC
:1008920073740024206C6973740A002420616463F9
:1008A2003A206164635468726573686F6C64203DBA
:1008B2002000736574003D000A0D2000242073653A
:1008C200740A242000616463000A65727220554E26
:1008D2004B4E4F574E5F564152000A3E00657272B0
:1008E200205345545F56414C55450A3E0065786990
:1008F20074002420657869740A0065727220554E6E
:100902004B4E4F574E5F434F4D4D414E44202200B8
:100912006F6E2020203D3E006F666620203D3E0027
:0E09220064696666203D3E003CEFCDAB890067
:00000001FF
